{
  "contractName": "SponsorAnimals",
  "abi": [
    {
      "inputs": [],
      "stateMutability": "nonpayable",
      "type": "constructor"
    },
    {
      "inputs": [
        {
          "internalType": "uint256",
          "name": "",
          "type": "uint256"
        }
      ],
      "name": "adopters",
      "outputs": [
        {
          "internalType": "address",
          "name": "",
          "type": "address"
        }
      ],
      "stateMutability": "view",
      "type": "function",
      "constant": true
    },
    {
      "inputs": [],
      "name": "name",
      "outputs": [
        {
          "internalType": "string",
          "name": "",
          "type": "string"
        }
      ],
      "stateMutability": "view",
      "type": "function",
      "constant": true
    },
    {
      "inputs": [],
      "name": "owner",
      "outputs": [
        {
          "internalType": "address payable",
          "name": "",
          "type": "address"
        }
      ],
      "stateMutability": "view",
      "type": "function",
      "constant": true
    },
    {
      "inputs": [
        {
          "internalType": "uint256",
          "name": "AnimalId",
          "type": "uint256"
        },
        {
          "internalType": "uint256",
          "name": "animalFee",
          "type": "uint256"
        }
      ],
      "name": "adopt",
      "outputs": [
        {
          "internalType": "uint256",
          "name": "",
          "type": "uint256"
        }
      ],
      "stateMutability": "payable",
      "type": "function",
      "payable": true
    },
    {
      "inputs": [],
      "name": "getAdopters",
      "outputs": [
        {
          "internalType": "address[8]",
          "name": "",
          "type": "address[8]"
        }
      ],
      "stateMutability": "view",
      "type": "function",
      "constant": true
    }
  ],
  "bytecode": "0x60806040523480156200001157600080fd5b506040518060400160405280600a81526020017f5a6f6f204e656761726100000000000000000000000000000000000000000000815250600890816200005891906200031a565b5033600960006101000a81548173ffffffffffffffffffffffffffffffffffffffff021916908373ffffffffffffffffffffffffffffffffffffffff16021790555062000401565b600081519050919050565b7f4e487b7100000000000000000000000000000000000000000000000000000000600052604160045260246000fd5b7f4e487b7100000000000000000000000000000000000000000000000000000000600052602260045260246000fd5b600060028204905060018216806200012257607f821691505b602082108103620001385762000137620000da565b5b50919050565b60008190508160005260206000209050919050565b60006020601f8301049050919050565b600082821b905092915050565b600060088302620001a27fffffffffffffffffffffffffffffffffffffffffffffffffffffffffffffffff8262000163565b620001ae868362000163565b95508019841693508086168417925050509392505050565b6000819050919050565b6000819050919050565b6000620001fb620001f5620001ef84620001c6565b620001d0565b620001c6565b9050919050565b6000819050919050565b6200021783620001da565b6200022f620002268262000202565b84845462000170565b825550505050565b600090565b6200024662000237565b620002538184846200020c565b505050565b5b818110156200027b576200026f6000826200023c565b60018101905062000259565b5050565b601f821115620002ca5762000294816200013e565b6200029f8462000153565b81016020851015620002af578190505b620002c7620002be8562000153565b83018262000258565b50505b505050565b600082821c905092915050565b6000620002ef60001984600802620002cf565b1980831691505092915050565b60006200030a8383620002dc565b9150826002028217905092915050565b6200032582620000a0565b67ffffffffffffffff811115620003415762000340620000ab565b5b6200034d825462000109565b6200035a8282856200027f565b600060209050601f8311600181146200039257600084156200037d578287015190505b620003898582620002fc565b865550620003f9565b601f198416620003a2866200013e565b60005b82811015620003cc57848901518255600182019150602085019450602081019050620003a5565b86831015620003ec5784890151620003e8601f891682620002dc565b8355505b6001600288020188555050505b505050505050565b61076280620004116000396000f3fe60806040526004361061004a5760003560e01c806306fdde031461004f5780633de4eb171461007a57806343ae80d3146100a55780635c2a9d8c146100e25780638da5cb5b14610112575b600080fd5b34801561005b57600080fd5b5061006461013d565b604051610071919061044a565b60405180910390f35b34801561008657600080fd5b5061008f6101cb565b60405161009c9190610549565b60405180910390f35b3480156100b157600080fd5b506100cc60048036038101906100c791906105a0565b61024c565b6040516100d991906105dc565b60405180910390f35b6100fc60048036038101906100f791906105f7565b610282565b6040516101099190610646565b60405180910390f35b34801561011e57600080fd5b50610127610371565b6040516101349190610682565b60405180910390f35b6008805461014a906106cc565b80601f0160208091040260200160405190810160405280929190818152602001828054610176906106cc565b80156101c35780601f10610198576101008083540402835291602001916101c3565b820191906000526020600020905b8154815290600101906020018083116101a657829003601f168201915b505050505081565b6101d3610397565b6000600880602002604051908101604052809291908260088015610242576020028201915b8160009054906101000a900473ffffffffffffffffffffffffffffffffffffffff1673ffffffffffffffffffffffffffffffffffffffff16815260200190600101908083116101f8575b5050505050905090565b6000816008811061025c57600080fd5b016000915054906101000a900473ffffffffffffffffffffffffffffffffffffffff1681565b6000808310158015610295575060078311155b61029e57600080fd5b33600084600881106102b3576102b26106fd565b5b0160006101000a81548173ffffffffffffffffffffffffffffffffffffffff021916908373ffffffffffffffffffffffffffffffffffffffff160217905550813410156102ff57600080fd5b600960009054906101000a900473ffffffffffffffffffffffffffffffffffffffff1673ffffffffffffffffffffffffffffffffffffffff166108fc349081150290604051600060405180830381858888f19350505050158015610367573d6000803e3d6000fd5b5082905092915050565b600960009054906101000a900473ffffffffffffffffffffffffffffffffffffffff1681565b604051806101000160405280600890602082028036833780820191505090505090565b600081519050919050565b600082825260208201905092915050565b60005b838110156103f45780820151818401526020810190506103d9565b60008484015250505050565b6000601f19601f8301169050919050565b600061041c826103ba565b61042681856103c5565b93506104368185602086016103d6565b61043f81610400565b840191505092915050565b600060208201905081810360008301526104648184610411565b905092915050565b600060089050919050565b600081905092915050565b6000819050919050565b600073ffffffffffffffffffffffffffffffffffffffff82169050919050565b60006104b78261048c565b9050919050565b6104c7816104ac565b82525050565b60006104d983836104be565b60208301905092915050565b6000602082019050919050565b6104fb8161046c565b6105058184610477565b925061051082610482565b8060005b8381101561054157815161052887826104cd565b9650610533836104e5565b925050600181019050610514565b505050505050565b60006101008201905061055f60008301846104f2565b92915050565b600080fd5b6000819050919050565b61057d8161056a565b811461058857600080fd5b50565b60008135905061059a81610574565b92915050565b6000602082840312156105b6576105b5610565565b5b60006105c48482850161058b565b91505092915050565b6105d6816104ac565b82525050565b60006020820190506105f160008301846105cd565b92915050565b6000806040838503121561060e5761060d610565565b5b600061061c8582860161058b565b925050602061062d8582860161058b565b9150509250929050565b6106408161056a565b82525050565b600060208201905061065b6000830184610637565b92915050565b600061066c8261048c565b9050919050565b61067c81610661565b82525050565b60006020820190506106976000830184610673565b92915050565b7f4e487b7100000000000000000000000000000000000000000000000000000000600052602260045260246000fd5b600060028204905060018216806106e457607f821691505b6020821081036106f7576106f661069d565b5b50919050565b7f4e487b7100000000000000000000000000000000000000000000000000000000600052603260045260246000fdfea2646970667358221220faf94f3430cb589fe1285bada0036628105c366eebdab34464f8458e0d99b8cb64736f6c63430008130033",
  "immutableReferences": {},
  "source": "// SPDX-License-Identifier: MIT\r\n//pragma solidity >=0.4.22 <0.8.0;\r\n//pragma solidity ^0.5.0;\r\npragma solidity ^0.8.0;\r\ncontract SponsorAnimals{\r\n\taddress[8] public adopters;\r\n\t\r\n\t\r\n\tstring public name;\r\n\taddress payable public owner;\r\n\t\r\n\tconstructor() {\r\n        name = \"Zoo Negara\";\r\n        owner = payable (msg.sender);\r\n\t\t\r\n    }\r\n\r\n\t// Adopting a AnimalId\r\n    function adopt(uint AnimalId, uint animalFee) public payable returns (uint) {\r\n  \t\trequire(AnimalId >= 0 && AnimalId <= 7);\r\n  \t\tadopters[AnimalId] = msg.sender;\r\n  \t\t\r\n\t\t//Require that there is enough Ether in the transaction\r\n\t\trequire(msg.value >= animalFee);\r\n\r\n\t\towner.transfer(msg.value);\r\n\r\n\t\treturn AnimalId;\r\n\t}\r\n\t// Retrieving the adopters\r\n\tfunction getAdopters() public view returns (address[8] memory) {\r\n  \t\treturn adopters;\r\n\t}\r\n}",
  "sourcePath": "D:\\Documents\\TARC\\202301 Y2S3\\BMIS2003 Blockchain Application Development\\Practical\\Week 10\\SponsorAnimalsWAddressFee\\SponsorAnimals\\contracts\\SponsorAnimals.sol",
  "compiler": {
    "name": "solc",
    "version": "0.8.19+commit.7dd6d404.Emscripten.clang"
  },
  "schemaVersion": "3.4.12",
  "updatedAt": "2023-04-30T06:57:21.130Z",
  "networkType": "ethereum",
  "devdoc": {
    "kind": "dev",
    "methods": {},
    "version": 1
  },
  "userdoc": {
    "kind": "user",
    "methods": {},
    "version": 1
  }
}